{
  "_format": "hh-sol-artifact-1",
  "contractName": "NftCollection",
  "sourceName": "contracts/NftCollection.sol",
  "abi": [
    {
      "inputs": [],
      "stateMutability": "nonpayable",
      "type": "constructor"
    },
    {
      "anonymous": false,
      "inputs": [
        {
          "indexed": true,
          "internalType": "address",
          "name": "owner",
          "type": "address"
        },
        {
          "indexed": true,
          "internalType": "address",
          "name": "approved",
          "type": "address"
        },
        {
          "indexed": true,
          "internalType": "uint256",
          "name": "tokenId",
          "type": "uint256"
        }
      ],
      "name": "Approval",
      "type": "event"
    },
    {
      "anonymous": false,
      "inputs": [
        {
          "indexed": true,
          "internalType": "address",
          "name": "owner",
          "type": "address"
        },
        {
          "indexed": true,
          "internalType": "address",
          "name": "operator",
          "type": "address"
        },
        {
          "indexed": false,
          "internalType": "bool",
          "name": "approved",
          "type": "bool"
        }
      ],
      "name": "ApprovalForAll",
      "type": "event"
    },
    {
      "anonymous": false,
      "inputs": [
        {
          "indexed": false,
          "internalType": "address",
          "name": "sender",
          "type": "address"
        },
        {
          "indexed": false,
          "internalType": "uint256",
          "name": "tokenId",
          "type": "uint256"
        }
      ],
      "name": "NewNFTMinted",
      "type": "event"
    },
    {
      "anonymous": false,
      "inputs": [
        {
          "indexed": true,
          "internalType": "address",
          "name": "from",
          "type": "address"
        },
        {
          "indexed": true,
          "internalType": "address",
          "name": "to",
          "type": "address"
        },
        {
          "indexed": true,
          "internalType": "uint256",
          "name": "tokenId",
          "type": "uint256"
        }
      ],
      "name": "Transfer",
      "type": "event"
    },
    {
      "inputs": [
        {
          "internalType": "address",
          "name": "to",
          "type": "address"
        },
        {
          "internalType": "uint256",
          "name": "tokenId",
          "type": "uint256"
        }
      ],
      "name": "approve",
      "outputs": [],
      "stateMutability": "nonpayable",
      "type": "function"
    },
    {
      "inputs": [
        {
          "internalType": "address",
          "name": "owner",
          "type": "address"
        }
      ],
      "name": "balanceOf",
      "outputs": [
        {
          "internalType": "uint256",
          "name": "",
          "type": "uint256"
        }
      ],
      "stateMutability": "view",
      "type": "function"
    },
    {
      "inputs": [
        {
          "internalType": "uint256",
          "name": "tokenId",
          "type": "uint256"
        }
      ],
      "name": "getApproved",
      "outputs": [
        {
          "internalType": "address",
          "name": "",
          "type": "address"
        }
      ],
      "stateMutability": "view",
      "type": "function"
    },
    {
      "inputs": [
        {
          "internalType": "address",
          "name": "owner",
          "type": "address"
        },
        {
          "internalType": "address",
          "name": "operator",
          "type": "address"
        }
      ],
      "name": "isApprovedForAll",
      "outputs": [
        {
          "internalType": "bool",
          "name": "",
          "type": "bool"
        }
      ],
      "stateMutability": "view",
      "type": "function"
    },
    {
      "inputs": [],
      "name": "makeNFT",
      "outputs": [],
      "stateMutability": "nonpayable",
      "type": "function"
    },
    {
      "inputs": [],
      "name": "name",
      "outputs": [
        {
          "internalType": "string",
          "name": "",
          "type": "string"
        }
      ],
      "stateMutability": "view",
      "type": "function"
    },
    {
      "inputs": [
        {
          "internalType": "uint256",
          "name": "tokenId",
          "type": "uint256"
        }
      ],
      "name": "ownerOf",
      "outputs": [
        {
          "internalType": "address",
          "name": "",
          "type": "address"
        }
      ],
      "stateMutability": "view",
      "type": "function"
    },
    {
      "inputs": [
        {
          "internalType": "uint256",
          "name": "tokenId",
          "type": "uint256"
        }
      ],
      "name": "pickRandomFirst",
      "outputs": [
        {
          "internalType": "string",
          "name": "",
          "type": "string"
        }
      ],
      "stateMutability": "view",
      "type": "function"
    },
    {
      "inputs": [
        {
          "internalType": "uint256",
          "name": "tokenId",
          "type": "uint256"
        }
      ],
      "name": "pickRandomSecond",
      "outputs": [
        {
          "internalType": "string",
          "name": "",
          "type": "string"
        }
      ],
      "stateMutability": "view",
      "type": "function"
    },
    {
      "inputs": [
        {
          "internalType": "uint256",
          "name": "tokenId",
          "type": "uint256"
        }
      ],
      "name": "pickRandomThird",
      "outputs": [
        {
          "internalType": "string",
          "name": "",
          "type": "string"
        }
      ],
      "stateMutability": "view",
      "type": "function"
    },
    {
      "inputs": [
        {
          "internalType": "address",
          "name": "from",
          "type": "address"
        },
        {
          "internalType": "address",
          "name": "to",
          "type": "address"
        },
        {
          "internalType": "uint256",
          "name": "tokenId",
          "type": "uint256"
        }
      ],
      "name": "safeTransferFrom",
      "outputs": [],
      "stateMutability": "nonpayable",
      "type": "function"
    },
    {
      "inputs": [
        {
          "internalType": "address",
          "name": "from",
          "type": "address"
        },
        {
          "internalType": "address",
          "name": "to",
          "type": "address"
        },
        {
          "internalType": "uint256",
          "name": "tokenId",
          "type": "uint256"
        },
        {
          "internalType": "bytes",
          "name": "_data",
          "type": "bytes"
        }
      ],
      "name": "safeTransferFrom",
      "outputs": [],
      "stateMutability": "nonpayable",
      "type": "function"
    },
    {
      "inputs": [
        {
          "internalType": "address",
          "name": "operator",
          "type": "address"
        },
        {
          "internalType": "bool",
          "name": "approved",
          "type": "bool"
        }
      ],
      "name": "setApprovalForAll",
      "outputs": [],
      "stateMutability": "nonpayable",
      "type": "function"
    },
    {
      "inputs": [
        {
          "internalType": "bytes4",
          "name": "interfaceId",
          "type": "bytes4"
        }
      ],
      "name": "supportsInterface",
      "outputs": [
        {
          "internalType": "bool",
          "name": "",
          "type": "bool"
        }
      ],
      "stateMutability": "view",
      "type": "function"
    },
    {
      "inputs": [],
      "name": "symbol",
      "outputs": [
        {
          "internalType": "string",
          "name": "",
          "type": "string"
        }
      ],
      "stateMutability": "view",
      "type": "function"
    },
    {
      "inputs": [
        {
          "internalType": "uint256",
          "name": "tokenId",
          "type": "uint256"
        }
      ],
      "name": "tokenURI",
      "outputs": [
        {
          "internalType": "string",
          "name": "",
          "type": "string"
        }
      ],
      "stateMutability": "view",
      "type": "function"
    },
    {
      "inputs": [
        {
          "internalType": "address",
          "name": "from",
          "type": "address"
        },
        {
          "internalType": "address",
          "name": "to",
          "type": "address"
        },
        {
          "internalType": "uint256",
          "name": "tokenId",
          "type": "uint256"
        }
      ],
      "name": "transferFrom",
      "outputs": [],
      "stateMutability": "nonpayable",
      "type": "function"
    }
  ],
  "bytecode": "0x608060405260405180610180016040528061014b815260200162004a2761014b9139600890805190602001906200003892919062000cba565b50604051806101e001604052806040518060400160405280600481526020017f5461696c0000000000000000000000000000000000000000000000000000000081525081526020016040518060400160405280600781526020017f4c61756e6472790000000000000000000000000000000000000000000000000081525081526020016040518060400160405280600881526020017f436f6d706c61696e00000000000000000000000000000000000000000000000081525081526020016040518060400160405280600681526020017f4d656d626572000000000000000000000000000000000000000000000000000081525081526020016040518060400160405280600781526020017f537472616e67650000000000000000000000000000000000000000000000000081525081526020016040518060400160405280600581526020017f596f75746800000000000000000000000000000000000000000000000000000081525081526020016040518060400160405280600881526020017f53686f756c64657200000000000000000000000000000000000000000000000081525081526020016040518060400160405280600781526020017f4c6574747563650000000000000000000000000000000000000000000000000081525081526020016040518060400160405280600381526020017f52756e000000000000000000000000000000000000000000000000000000000081525081526020016040518060400160405280600981526020017f526164696174696f6e000000000000000000000000000000000000000000000081525081526020016040518060400160405280600581526020017f476164696400000000000000000000000000000000000000000000000000000081525081526020016040518060400160405280600781526020017f53616261796f6e0000000000000000000000000000000000000000000000000081525081526020016040518060400160405280600881526020017f4b61626c6f6f657900000000000000000000000000000000000000000000000081525081526020016040518060400160405280600381526020017f546162000000000000000000000000000000000000000000000000000000000081525081526020016040518060400160405280600481526020017f5377616e00000000000000000000000000000000000000000000000000000000815250815250600990600f620003ca92919062000d4b565b50604051806101e001604052806040518060400160405280600681526020017f4f72616e6765000000000000000000000000000000000000000000000000000081525081526020016040518060400160405280600681526020017f48617070656e000000000000000000000000000000000000000000000000000081525081526020016040518060400160405280600781526020017f526574697265640000000000000000000000000000000000000000000000000081525081526020016040518060400160405280600581526020017f5370656e6400000000000000000000000000000000000000000000000000000081525081526020016040518060400160405280600481526020017f506970650000000000000000000000000000000000000000000000000000000081525081526020016040518060400160405280600581526020017f547261736800000000000000000000000000000000000000000000000000000081525081526020016040518060400160405280600681526020017f436f66666565000000000000000000000000000000000000000000000000000081525081526020016040518060400160405280600781526020017f476c61737365730000000000000000000000000000000000000000000000000081525081526020016040518060400160405280600481526020017f57616c6b0000000000000000000000000000000000000000000000000000000081525081526020016040518060400160405280600581526020017f48616e647300000000000000000000000000000000000000000000000000000081525081526020016040518060400160405280600781526020017f476164726f6f6e0000000000000000000000000000000000000000000000000081525081526020016040518060400160405280600681526020017f53616672616e000000000000000000000000000000000000000000000000000081525081526020016040518060400160405280600681526020017f4b656e6e656c000000000000000000000000000000000000000000000000000081525081526020016040518060400160405280600881526020017f546163697475726e00000000000000000000000000000000000000000000000081525081526020016040518060400160405280600581526020017f426f617264000000000000000000000000000000000000000000000000000000815250815250600a90600f6200075c92919062000d4b565b50604051806101e001604052806040518060400160405280600681526020017f566972747565000000000000000000000000000000000000000000000000000081525081526020016040518060400160405280600981526020017f457865637574726978000000000000000000000000000000000000000000000081525081526020016040518060400160405280600581526020017f447265616d00000000000000000000000000000000000000000000000000000081525081526020016040518060400160405280600581526020017f506f77657200000000000000000000000000000000000000000000000000000081525081526020016040518060400160405280600881526020017f42617468726f6f6d00000000000000000000000000000000000000000000000081525081526020016040518060400160405280600581526020017f576173746500000000000000000000000000000000000000000000000000000081525081526020016040518060400160405280600681526020017f4167656e6461000000000000000000000000000000000000000000000000000081525081526020016040518060400160405280600881526020017f436f6d707574657200000000000000000000000000000000000000000000000081525081526020016040518060400160405280600581526020017f536c65657000000000000000000000000000000000000000000000000000000081525081526020016040518060400160405280600481526020017f576f72640000000000000000000000000000000000000000000000000000000081525081526020016040518060400160405280600681526020017f476166666572000000000000000000000000000000000000000000000000000081525081526020016040518060400160405280600d81526020017f536163636861726f6d657465720000000000000000000000000000000000000081525081526020016040518060400160405280600881526020017f4b616e6761726f6f00000000000000000000000000000000000000000000000081525081526020016040518060400160405280600881526020017f54696172656c6c6100000000000000000000000000000000000000000000000081525081526020016040518060400160405280600581526020017f426f636365000000000000000000000000000000000000000000000000000000815250815250600b90600f62000aee92919062000d4b565b5034801562000afc57600080fd5b506040518060400160405280600981526020017f5371756172654e465400000000000000000000000000000000000000000000008152506040518060400160405280600681526020017f5351554152450000000000000000000000000000000000000000000000000000815250816000908051906020019062000b8192919062000cba565b50806001908051906020019062000b9a92919062000cba565b50505062000be86040518060400160405280601981526020017f5468697320636f6e72616374206973206465706c6f796564210000000000000081525062000bee60201b620010c71760201c565b62000f6c565b62000c8e8160405160240162000c05919062000e80565b6040516020818303038152906040527f41304fac000000000000000000000000000000000000000000000000000000007bffffffffffffffffffffffffffffffffffffffffffffffffffffffff19166020820180517bffffffffffffffffffffffffffffffffffffffffffffffffffffffff838183161783525050505062000c9160201b60201c565b50565b60008151905060006a636f6e736f6c652e6c6f679050602083016000808483855afa5050505050565b82805462000cc89062000ef6565b90600052602060002090601f01602090048101928262000cec576000855562000d38565b82601f1062000d0757805160ff191683800117855562000d38565b8280016001018555821562000d38579182015b8281111562000d3757825182559160200191906001019062000d1a565b5b50905062000d47919062000db2565b5090565b82805482825590600052602060002090810192821562000d9f579160200282015b8281111562000d9e57825182908051906020019062000d8d92919062000cba565b509160200191906001019062000d6c565b5b50905062000dae919062000dd1565b5090565b5b8082111562000dcd57600081600090555060010162000db3565b5090565b5b8082111562000df5576000818162000deb919062000df9565b5060010162000dd2565b5090565b50805462000e079062000ef6565b6000825580601f1062000e1b575062000e3c565b601f01602090049060005260206000209081019062000e3b919062000db2565b5b50565b600062000e4c8262000ea4565b62000e58818562000eaf565b935062000e6a81856020860162000ec0565b62000e758162000f5b565b840191505092915050565b6000602082019050818103600083015262000e9c818462000e3f565b905092915050565b600081519050919050565b600082825260208201905092915050565b60005b8381101562000ee057808201518184015260208101905062000ec3565b8381111562000ef0576000848401525b50505050565b6000600282049050600182168062000f0f57607f821691505b6020821081141562000f265762000f2562000f2c565b5b50919050565b7f4e487b7100000000000000000000000000000000000000000000000000000000600052602260045260246000fd5b6000601f19601f8301169050919050565b613aab8062000f7c6000396000f3fe608060405234801561001057600080fd5b506004361061010b5760003560e01c8063672da388116100a2578063a22cb46511610071578063a22cb465146102f0578063b036b4bd1461030c578063b88d4fde14610316578063c87b56dd14610332578063e985e9c5146103625761010b565b8063672da3881461024257806370a082311461027257806389c0ec31146102a257806395d89b41146102d25761010b565b806323b872dd116100de57806323b872dd146101aa57806342842e0e146101c65780635e8f33f9146101e25780636352211e146102125761010b565b806301ffc9a71461011057806306fdde0314610140578063081812fc1461015e578063095ea7b31461018e575b600080fd5b61012a600480360381019061012591906124fe565b610392565b6040516101379190612c50565b60405180910390f35b610148610474565b6040516101559190612c6b565b60405180910390f35b61017860048036038101906101739190612550565b610506565b6040516101859190612bc0565b60405180910390f35b6101a860048036038101906101a391906124c2565b61058b565b005b6101c460048036038101906101bf91906123bc565b6106a3565b005b6101e060048036038101906101db91906123bc565b610703565b005b6101fc60048036038101906101f79190612550565b610723565b6040516102099190612c6b565b60405180910390f35b61022c60048036038101906102279190612550565b610842565b6040516102399190612bc0565b60405180910390f35b61025c60048036038101906102579190612550565b6108f4565b6040516102699190612c6b565b60405180910390f35b61028c60048036038101906102879190612357565b610a13565b6040516102999190612ecb565b60405180910390f35b6102bc60048036038101906102b79190612550565b610acb565b6040516102c99190612c6b565b60405180910390f35b6102da610bea565b6040516102e79190612c6b565b60405180910390f35b61030a60048036038101906103059190612486565b610c7c565b005b610314610c92565b005b610330600480360381019061032b919061240b565b610e7f565b005b61034c60048036038101906103479190612550565b610ee1565b6040516103599190612c6b565b60405180910390f35b61037c60048036038101906103779190612380565b611033565b6040516103899190612c50565b60405180910390f35b60007f80ac58cd000000000000000000000000000000000000000000000000000000007bffffffffffffffffffffffffffffffffffffffffffffffffffffffff1916827bffffffffffffffffffffffffffffffffffffffffffffffffffffffff1916148061045d57507f5b5e139f000000000000000000000000000000000000000000000000000000007bffffffffffffffffffffffffffffffffffffffffffffffffffffffff1916827bffffffffffffffffffffffffffffffffffffffffffffffffffffffff1916145b8061046d575061046c82611160565b5b9050919050565b6060600080546104839061315f565b80601f01602080910402602001604051908101604052809291908181526020018280546104af9061315f565b80156104fc5780601f106104d1576101008083540402835291602001916104fc565b820191906000526020600020905b8154815290600101906020018083116104df57829003601f168201915b5050505050905090565b6000610511826111ca565b610550576040517f08c379a000000000000000000000000000000000000000000000000000000000815260040161054790612e4b565b60405180910390fd5b6004600083815260200190815260200160002060009054906101000a900473ffffffffffffffffffffffffffffffffffffffff169050919050565b600061059682610842565b90508073ffffffffffffffffffffffffffffffffffffffff168373ffffffffffffffffffffffffffffffffffffffff161415610607576040517f08c379a00000000000000000000000000000000000000000000000000000000081526004016105fe90612e8b565b60405180910390fd5b8073ffffffffffffffffffffffffffffffffffffffff16610626611236565b73ffffffffffffffffffffffffffffffffffffffff16148061065557506106548161064f611236565b611033565b5b610694576040517f08c379a000000000000000000000000000000000000000000000000000000000815260040161068b90612d8b565b60405180910390fd5b61069e838361123e565b505050565b6106b46106ae611236565b826112f7565b6106f3576040517f08c379a00000000000000000000000000000000000000000000000000000000081526004016106ea90612eab565b60405180910390fd5b6106fe8383836113d5565b505050565b61071e83838360405180602001604052806000815250610e7f565b505050565b606060006107586107338461163c565b6040516020016107439190612af3565b604051602081830303815290604052426117e9565b9050600b805490508161076b919061320b565b9050600b81815481106107a7577f4e487b7100000000000000000000000000000000000000000000000000000000600052603260045260246000fd5b9060005260206000200180546107bc9061315f565b80601f01602080910402602001604051908101604052809291908181526020018280546107e89061315f565b80156108355780601f1061080a57610100808354040283529160200191610835565b820191906000526020600020905b81548152906001019060200180831161081857829003601f168201915b5050505050915050919050565b6000806002600084815260200190815260200160002060009054906101000a900473ffffffffffffffffffffffffffffffffffffffff169050600073ffffffffffffffffffffffffffffffffffffffff168173ffffffffffffffffffffffffffffffffffffffff1614156108eb576040517f08c379a00000000000000000000000000000000000000000000000000000000081526004016108e290612dcb565b60405180910390fd5b80915050919050565b606060006109296109048461163c565b6040516020016109149190612b15565b604051602081830303815290604052426117e9565b9050600a805490508161093c919061320b565b9050600a8181548110610978577f4e487b7100000000000000000000000000000000000000000000000000000000600052603260045260246000fd5b90600052602060002001805461098d9061315f565b80601f01602080910402602001604051908101604052809291908181526020018280546109b99061315f565b8015610a065780601f106109db57610100808354040283529160200191610a06565b820191906000526020600020905b8154815290600101906020018083116109e957829003601f168201915b5050505050915050919050565b60008073ffffffffffffffffffffffffffffffffffffffff168273ffffffffffffffffffffffffffffffffffffffff161415610a84576040517f08c379a0000000000000000000000000000000000000000000000000000000008152600401610a7b90612dab565b60405180910390fd5b600360008373ffffffffffffffffffffffffffffffffffffffff1673ffffffffffffffffffffffffffffffffffffffff168152602001908152602001600020549050919050565b60606000610b00610adb8461163c565b604051602001610aeb9190612b7c565b604051602081830303815290604052426117e9565b905060098054905081610b13919061320b565b905060098181548110610b4f577f4e487b7100000000000000000000000000000000000000000000000000000000600052603260045260246000fd5b906000526020600020018054610b649061315f565b80601f0160208091040260200160405190810160405280929190818152602001828054610b909061315f565b8015610bdd5780601f10610bb257610100808354040283529160200191610bdd565b820191906000526020600020905b815481529060010190602001808311610bc057829003601f168201915b5050505050915050919050565b606060018054610bf99061315f565b80601f0160208091040260200160405190810160405280929190818152602001828054610c259061315f565b8015610c725780601f10610c4757610100808354040283529160200191610c72565b820191906000526020600020905b815481529060010190602001808311610c5557829003601f168201915b5050505050905090565b610c8e610c87611236565b8383611827565b5050565b6000610c9e6007611994565b90506000610cab82610acb565b90506000610cb8836108f4565b90506000610cc584610723565b90506000838383604051602001610cde93929190612a57565b604051602081830303815290604052905060006008858585604051602001610d099493929190612a88565b60405160208183030381529060405290506000610d4e83610d29846119a2565b604051602001610d3a929190612b37565b6040516020818303038152906040526119a2565b9050600081604051602001610d639190612b9e565b6040516020818303038152906040529050610db26040518060400160405280602081526020017f0a2d2d2d2d2d4c6f6767696e67205356472d2d2d2d2d2d2d2d2d2d2d2d2d2d2d8152506110c7565b610dda81604051602001610dc69190612ad1565b6040516020818303038152906040526110c7565b610dfb6040518060600160405280602481526020016139ed602491396110c7565b610e053389611b60565b610e0f8882611b7e565b610e32604051806060016040528060258152602001613a11602591398933611bf2565b610e3c6007611c91565b7f1c05098ed1ff38e6238d2b1b04b2c7977d4c94ce651bda6473f9dba8dbf01da03389604051610e6d929190612c27565b60405180910390a15050505050505050565b610e90610e8a611236565b836112f7565b610ecf576040517f08c379a0000000000000000000000000000000000000000000000000000000008152600401610ec690612eab565b60405180910390fd5b610edb84848484611ca7565b50505050565b6060610eec826111ca565b610f2b576040517f08c379a0000000000000000000000000000000000000000000000000000000008152600401610f2290612e2b565b60405180910390fd5b6000600660008481526020019081526020016000208054610f4b9061315f565b80601f0160208091040260200160405190810160405280929190818152602001828054610f779061315f565b8015610fc45780601f10610f9957610100808354040283529160200191610fc4565b820191906000526020600020905b815481529060010190602001808311610fa757829003601f168201915b505050505090506000610fd5611d03565b9050600081511415610feb57819250505061102e565b600082511115611020578082604051602001611008929190612a33565b6040516020818303038152906040529250505061102e565b61102984611d1a565b925050505b919050565b6000600560008473ffffffffffffffffffffffffffffffffffffffff1673ffffffffffffffffffffffffffffffffffffffff16815260200190815260200160002060008373ffffffffffffffffffffffffffffffffffffffff1673ffffffffffffffffffffffffffffffffffffffff16815260200190815260200160002060009054906101000a900460ff16905092915050565b61115d816040516024016110db9190612c6b565b6040516020818303038152906040527f41304fac000000000000000000000000000000000000000000000000000000007bffffffffffffffffffffffffffffffffffffffffffffffffffffffff19166020820180517bffffffffffffffffffffffffffffffffffffffffffffffffffffffff8381831617835250505050611dc1565b50565b60007f01ffc9a7000000000000000000000000000000000000000000000000000000007bffffffffffffffffffffffffffffffffffffffffffffffffffffffff1916827bffffffffffffffffffffffffffffffffffffffffffffffffffffffff1916149050919050565b60008073ffffffffffffffffffffffffffffffffffffffff166002600084815260200190815260200160002060009054906101000a900473ffffffffffffffffffffffffffffffffffffffff1673ffffffffffffffffffffffffffffffffffffffff1614159050919050565b600033905090565b816004600083815260200190815260200160002060006101000a81548173ffffffffffffffffffffffffffffffffffffffff021916908373ffffffffffffffffffffffffffffffffffffffff160217905550808273ffffffffffffffffffffffffffffffffffffffff166112b183610842565b73ffffffffffffffffffffffffffffffffffffffff167f8c5be1e5ebec7d5bd14f71427d1e84f3dd0314c0f7b2291e5b200ac8c7c3b92560405160405180910390a45050565b6000611302826111ca565b611341576040517f08c379a000000000000000000000000000000000000000000000000000000000815260040161133890612d6b565b60405180910390fd5b600061134c83610842565b90508073ffffffffffffffffffffffffffffffffffffffff168473ffffffffffffffffffffffffffffffffffffffff16148061138e575061138d8185611033565b5b806113cc57508373ffffffffffffffffffffffffffffffffffffffff166113b484610506565b73ffffffffffffffffffffffffffffffffffffffff16145b91505092915050565b8273ffffffffffffffffffffffffffffffffffffffff166113f582610842565b73ffffffffffffffffffffffffffffffffffffffff161461144b576040517f08c379a000000000000000000000000000000000000000000000000000000000815260040161144290612ceb565b60405180910390fd5b600073ffffffffffffffffffffffffffffffffffffffff168273ffffffffffffffffffffffffffffffffffffffff1614156114bb576040517f08c379a00000000000000000000000000000000000000000000000000000000081526004016114b290612d2b565b60405180910390fd5b6114c6838383611dea565b6114d160008261123e565b6001600360008573ffffffffffffffffffffffffffffffffffffffff1673ffffffffffffffffffffffffffffffffffffffff16815260200190815260200160002060008282546115219190613075565b925050819055506001600360008473ffffffffffffffffffffffffffffffffffffffff1673ffffffffffffffffffffffffffffffffffffffff16815260200190815260200160002060008282546115789190612f94565b92505081905550816002600083815260200190815260200160002060006101000a81548173ffffffffffffffffffffffffffffffffffffffff021916908373ffffffffffffffffffffffffffffffffffffffff160217905550808273ffffffffffffffffffffffffffffffffffffffff168473ffffffffffffffffffffffffffffffffffffffff167fddf252ad1be2c89b69c2b068fc378daa952ba7f163c4a11628f55a4df523b3ef60405160405180910390a4611637838383611def565b505050565b60606000821415611684576040518060400160405280600181526020017f300000000000000000000000000000000000000000000000000000000000000081525090506117e4565b600082905060005b600082146116b657808061169f906131c2565b915050600a826116af9190612fea565b915061168c565b60008167ffffffffffffffff8111156116f8577f4e487b7100000000000000000000000000000000000000000000000000000000600052604160045260246000fd5b6040519080825280601f01601f19166020018201604052801561172a5781602001600182028036833780820191505090505b5090505b600085146117dd576001826117439190613075565b9150600a85611752919061320b565b603061175e9190612f94565b60f81b81838151811061179a577f4e487b7100000000000000000000000000000000000000000000000000000000600052603260045260246000fd5b60200101907effffffffffffffffffffffffffffffffffffffffffffffffffffffffffffff1916908160001a905350600a856117d69190612fea565b945061172e565b8093505050505b919050565b6000826117f58361163c565b604051602001611806929190612a33565b6040516020818303038152906040528051906020012060001c905092915050565b8173ffffffffffffffffffffffffffffffffffffffff168373ffffffffffffffffffffffffffffffffffffffff161415611896576040517f08c379a000000000000000000000000000000000000000000000000000000000815260040161188d90612d4b565b60405180910390fd5b80600560008573ffffffffffffffffffffffffffffffffffffffff1673ffffffffffffffffffffffffffffffffffffffff16815260200190815260200160002060008473ffffffffffffffffffffffffffffffffffffffff1673ffffffffffffffffffffffffffffffffffffffff16815260200190815260200160002060006101000a81548160ff0219169083151502179055508173ffffffffffffffffffffffffffffffffffffffff168373ffffffffffffffffffffffffffffffffffffffff167f17307eab39ab6107e8899845ad3d59bd9653f200f220920489ca2b5937696c31836040516119879190612c50565b60405180910390a3505050565b600081600001549050919050565b606060008251905060008114156119cb5760405180602001604052806000815250915050611b5b565b600060036002836119dc9190612f94565b6119e69190612fea565b60046119f2919061301b565b90506000602082611a039190612f94565b67ffffffffffffffff811115611a42577f4e487b7100000000000000000000000000000000000000000000000000000000600052604160045260246000fd5b6040519080825280601f01601f191660200182016040528015611a745781602001600182028036833780820191505090505b5090506000604051806060016040528060408152602001613a36604091399050600181016020830160005b86811015611b185760038101905062ffffff818a015116603f8160121c168401518060081b905060ff603f83600c1c1686015116810190508060081b905060ff603f8360061c1686015116810190508060081b905060ff603f831686015116810190508060e01b90508084526004840193505050611a9f565b506003860660018114611b325760028114611b4257611b4d565b613d3d60f01b6002830352611b4d565b603d60f81b60018303525b508484525050819450505050505b919050565b611b7a828260405180602001604052806000815250611df4565b5050565b611b87826111ca565b611bc6576040517f08c379a0000000000000000000000000000000000000000000000000000000008152600401611bbd90612deb565b60405180910390fd5b80600660008481526020019081526020016000209080519060200190611bed9291906121e3565b505050565b611c8c838383604051602401611c0a93929190612c8d565b6040516020818303038152906040527fe3849f79000000000000000000000000000000000000000000000000000000007bffffffffffffffffffffffffffffffffffffffffffffffffffffffff19166020820180517bffffffffffffffffffffffffffffffffffffffffffffffffffffffff8381831617835250505050611dc1565b505050565b6001816000016000828254019250508190555050565b611cb28484846113d5565b611cbe84848484611e4f565b611cfd576040517f08c379a0000000000000000000000000000000000000000000000000000000008152600401611cf490612ccb565b60405180910390fd5b50505050565b606060405180602001604052806000815250905090565b6060611d25826111ca565b611d64576040517f08c379a0000000000000000000000000000000000000000000000000000000008152600401611d5b90612e6b565b60405180910390fd5b6000611d6e611d03565b90506000815111611d8e5760405180602001604052806000815250611db9565b80611d988461163c565b604051602001611da9929190612a33565b6040516020818303038152906040525b915050919050565b60008151905060006a636f6e736f6c652e6c6f679050602083016000808483855afa5050505050565b505050565b505050565b611dfe8383611fe6565b611e0b6000848484611e4f565b611e4a576040517f08c379a0000000000000000000000000000000000000000000000000000000008152600401611e4190612ccb565b60405180910390fd5b505050565b6000611e708473ffffffffffffffffffffffffffffffffffffffff166121c0565b15611fd9578373ffffffffffffffffffffffffffffffffffffffff1663150b7a02611e99611236565b8786866040518563ffffffff1660e01b8152600401611ebb9493929190612bdb565b602060405180830381600087803b158015611ed557600080fd5b505af1925050508015611f0657506040513d601f19601f82011682018060405250810190611f039190612527565b60015b611f89573d8060008114611f36576040519150601f19603f3d011682016040523d82523d6000602084013e611f3b565b606091505b50600081511415611f81576040517f08c379a0000000000000000000000000000000000000000000000000000000008152600401611f7890612ccb565b60405180910390fd5b805181602001fd5b63150b7a0260e01b7bffffffffffffffffffffffffffffffffffffffffffffffffffffffff1916817bffffffffffffffffffffffffffffffffffffffffffffffffffffffff191614915050611fde565b600190505b949350505050565b600073ffffffffffffffffffffffffffffffffffffffff168273ffffffffffffffffffffffffffffffffffffffff161415612056576040517f08c379a000000000000000000000000000000000000000000000000000000000815260040161204d90612e0b565b60405180910390fd5b61205f816111ca565b1561209f576040517f08c379a000000000000000000000000000000000000000000000000000000000815260040161209690612d0b565b60405180910390fd5b6120ab60008383611dea565b6001600360008473ffffffffffffffffffffffffffffffffffffffff1673ffffffffffffffffffffffffffffffffffffffff16815260200190815260200160002060008282546120fb9190612f94565b92505081905550816002600083815260200190815260200160002060006101000a81548173ffffffffffffffffffffffffffffffffffffffff021916908373ffffffffffffffffffffffffffffffffffffffff160217905550808273ffffffffffffffffffffffffffffffffffffffff16600073ffffffffffffffffffffffffffffffffffffffff167fddf252ad1be2c89b69c2b068fc378daa952ba7f163c4a11628f55a4df523b3ef60405160405180910390a46121bc60008383611def565b5050565b6000808273ffffffffffffffffffffffffffffffffffffffff163b119050919050565b8280546121ef9061315f565b90600052602060002090601f0160209004810192826122115760008555612258565b82601f1061222a57805160ff1916838001178555612258565b82800160010185558215612258579182015b8281111561225757825182559160200191906001019061223c565b5b5090506122659190612269565b5090565b5b8082111561228257600081600090555060010161226a565b5090565b600061229961229484612f0b565b612ee6565b9050828152602081018484840111156122b157600080fd5b6122bc84828561311d565b509392505050565b6000813590506122d381613990565b92915050565b6000813590506122e8816139a7565b92915050565b6000813590506122fd816139be565b92915050565b600081519050612312816139be565b92915050565b600082601f83011261232957600080fd5b8135612339848260208601612286565b91505092915050565b600081359050612351816139d5565b92915050565b60006020828403121561236957600080fd5b6000612377848285016122c4565b91505092915050565b6000806040838503121561239357600080fd5b60006123a1858286016122c4565b92505060206123b2858286016122c4565b9150509250929050565b6000806000606084860312156123d157600080fd5b60006123df868287016122c4565b93505060206123f0868287016122c4565b925050604061240186828701612342565b9150509250925092565b6000806000806080858703121561242157600080fd5b600061242f878288016122c4565b9450506020612440878288016122c4565b935050604061245187828801612342565b925050606085013567ffffffffffffffff81111561246e57600080fd5b61247a87828801612318565b91505092959194509250565b6000806040838503121561249957600080fd5b60006124a7858286016122c4565b92505060206124b8858286016122d9565b9150509250929050565b600080604083850312156124d557600080fd5b60006124e3858286016122c4565b92505060206124f485828601612342565b9150509250929050565b60006020828403121561251057600080fd5b600061251e848285016122ee565b91505092915050565b60006020828403121561253957600080fd5b600061254784828501612303565b91505092915050565b60006020828403121561256257600080fd5b600061257084828501612342565b91505092915050565b612582816130a9565b82525050565b612591816130bb565b82525050565b60006125a282612f51565b6125ac8185612f67565b93506125bc81856020860161312c565b6125c5816132f8565b840191505092915050565b60006125db82612f5c565b6125e58185612f78565b93506125f581856020860161312c565b6125fe816132f8565b840191505092915050565b600061261482612f5c565b61261e8185612f89565b935061262e81856020860161312c565b80840191505092915050565b600081546126478161315f565b6126518186612f89565b9450600182166000811461266c576001811461267d576126b0565b60ff198316865281860193506126b0565b61268685612f3c565b60005b838110156126a857815481890152600182019150602081019050612689565b838801955050505b50505092915050565b60006126c6602583612f89565b91506126d182613309565b602582019050919050565b60006126e9603283612f78565b91506126f482613358565b604082019050919050565b600061270c602583612f78565b9150612717826133a7565b604082019050919050565b600061272f601c83612f78565b915061273a826133f6565b602082019050919050565b6000612752600a83612f89565b915061275d8261341f565b600a82019050919050565b6000612775602483612f78565b915061278082613448565b604082019050919050565b6000612798601983612f78565b91506127a382613497565b602082019050919050565b60006127bb606383612f89565b91506127c6826134c0565b606382019050919050565b60006127de600b83612f89565b91506127e98261355b565b600b82019050919050565b6000612801602c83612f78565b915061280c82613584565b604082019050919050565b6000612824600d83612f89565b915061282f826135d3565b600d82019050919050565b6000612847603883612f78565b9150612852826135fc565b604082019050919050565b600061286a602a83612f78565b91506128758261364b565b604082019050919050565b600061288d602983612f78565b91506128988261369a565b604082019050919050565b60006128b0602e83612f78565b91506128bb826136e9565b604082019050919050565b60006128d3600283612f89565b91506128de82613738565b600282019050919050565b60006128f6602083612f78565b915061290182613761565b602082019050919050565b6000612919603183612f78565b91506129248261378a565b604082019050919050565b600061293c602c83612f78565b9150612947826137d9565b604082019050919050565b600061295f602f83612f78565b915061296a82613828565b604082019050919050565b6000612982600a83612f89565b915061298d82613877565b600a82019050919050565b60006129a5602183612f78565b91506129b0826138a0565b604082019050919050565b60006129c8600a83612f89565b91506129d3826138ef565b600a82019050919050565b60006129eb601d83612f89565b91506129f682613918565b601d82019050919050565b6000612a0e603183612f78565b9150612a1982613941565b604082019050919050565b612a2d81613113565b82525050565b6000612a3f8285612609565b9150612a4b8284612609565b91508190509392505050565b6000612a638286612609565b9150612a6f8285612609565b9150612a7b8284612609565b9150819050949350505050565b6000612a94828761263a565b9150612aa08286612609565b9150612aac8285612609565b9150612ab88284612609565b9150612ac382612817565b915081905095945050505050565b6000612adc826126b9565b9150612ae88284612609565b915081905092915050565b6000612afe82612745565b9150612b0a8284612609565b915081905092915050565b6000612b20826127d1565b9150612b2c8284612609565b915081905092915050565b6000612b4282612975565b9150612b4e8285612609565b9150612b59826127ae565b9150612b658284612609565b9150612b70826128c6565b91508190509392505050565b6000612b87826129bb565b9150612b938284612609565b915081905092915050565b6000612ba9826129de565b9150612bb58284612609565b915081905092915050565b6000602082019050612bd56000830184612579565b92915050565b6000608082019050612bf06000830187612579565b612bfd6020830186612579565b612c0a6040830185612a24565b8181036060830152612c1c8184612597565b905095945050505050565b6000604082019050612c3c6000830185612579565b612c496020830184612a24565b9392505050565b6000602082019050612c656000830184612588565b92915050565b60006020820190508181036000830152612c8581846125d0565b905092915050565b60006060820190508181036000830152612ca781866125d0565b9050612cb66020830185612a24565b612cc36040830184612579565b949350505050565b60006020820190508181036000830152612ce4816126dc565b9050919050565b60006020820190508181036000830152612d04816126ff565b9050919050565b60006020820190508181036000830152612d2481612722565b9050919050565b60006020820190508181036000830152612d4481612768565b9050919050565b60006020820190508181036000830152612d648161278b565b9050919050565b60006020820190508181036000830152612d84816127f4565b9050919050565b60006020820190508181036000830152612da48161283a565b9050919050565b60006020820190508181036000830152612dc48161285d565b9050919050565b60006020820190508181036000830152612de481612880565b9050919050565b60006020820190508181036000830152612e04816128a3565b9050919050565b60006020820190508181036000830152612e24816128e9565b9050919050565b60006020820190508181036000830152612e448161290c565b9050919050565b60006020820190508181036000830152612e648161292f565b9050919050565b60006020820190508181036000830152612e8481612952565b9050919050565b60006020820190508181036000830152612ea481612998565b9050919050565b60006020820190508181036000830152612ec481612a01565b9050919050565b6000602082019050612ee06000830184612a24565b92915050565b6000612ef0612f01565b9050612efc8282613191565b919050565b6000604051905090565b600067ffffffffffffffff821115612f2657612f256132c9565b5b612f2f826132f8565b9050602081019050919050565b60008190508160005260206000209050919050565b600081519050919050565b600081519050919050565b600082825260208201905092915050565b600082825260208201905092915050565b600081905092915050565b6000612f9f82613113565b9150612faa83613113565b9250827fffffffffffffffffffffffffffffffffffffffffffffffffffffffffffffffff03821115612fdf57612fde61323c565b5b828201905092915050565b6000612ff582613113565b915061300083613113565b9250826130105761300f61326b565b5b828204905092915050565b600061302682613113565b915061303183613113565b9250817fffffffffffffffffffffffffffffffffffffffffffffffffffffffffffffffff048311821515161561306a5761306961323c565b5b828202905092915050565b600061308082613113565b915061308b83613113565b92508282101561309e5761309d61323c565b5b828203905092915050565b60006130b4826130f3565b9050919050565b60008115159050919050565b60007fffffffff0000000000000000000000000000000000000000000000000000000082169050919050565b600073ffffffffffffffffffffffffffffffffffffffff82169050919050565b6000819050919050565b82818337600083830152505050565b60005b8381101561314a57808201518184015260208101905061312f565b83811115613159576000848401525b50505050565b6000600282049050600182168061317757607f821691505b6020821081141561318b5761318a61329a565b5b50919050565b61319a826132f8565b810181811067ffffffffffffffff821117156131b9576131b86132c9565b5b80604052505050565b60006131cd82613113565b91507fffffffffffffffffffffffffffffffffffffffffffffffffffffffffffffffff821415613200576131ff61323c565b5b600182019050919050565b600061321682613113565b915061322183613113565b9250826132315761323061326b565b5b828206905092915050565b7f4e487b7100000000000000000000000000000000000000000000000000000000600052601160045260246000fd5b7f4e487b7100000000000000000000000000000000000000000000000000000000600052601260045260246000fd5b7f4e487b7100000000000000000000000000000000000000000000000000000000600052602260045260246000fd5b7f4e487b7100000000000000000000000000000000000000000000000000000000600052604160045260246000fd5b6000601f19601f8301169050919050565b7f68747470733a2f2f6e6674707265766965772e30786465762e636f6465732f3f60008201527f636f64653d000000000000000000000000000000000000000000000000000000602082015250565b7f4552433732313a207472616e7366657220746f206e6f6e20455243373231526560008201527f63656976657220696d706c656d656e7465720000000000000000000000000000602082015250565b7f4552433732313a207472616e736665722066726f6d20696e636f72726563742060008201527f6f776e6572000000000000000000000000000000000000000000000000000000602082015250565b7f4552433732313a20746f6b656e20616c7265616479206d696e74656400000000600082015250565b7f54484952445f574f524400000000000000000000000000000000000000000000600082015250565b7f4552433732313a207472616e7366657220746f20746865207a65726f2061646460008201527f7265737300000000000000000000000000000000000000000000000000000000602082015250565b7f4552433732313a20617070726f766520746f2063616c6c657200000000000000600082015250565b7f222c20226465736372697074696f6e223a20224120686967686c79206163636c60008201527f61696d656420636f6c6c656374696f6e206f6620737175617265732e222c202260208201527f696d616765223a2022646174613a696d6167652f7376672b786d6c3b6261736560408201527f36342c0000000000000000000000000000000000000000000000000000000000606082015250565b7f5345434f4e445f574f5244000000000000000000000000000000000000000000600082015250565b7f4552433732313a206f70657261746f7220717565727920666f72206e6f6e657860008201527f697374656e7420746f6b656e0000000000000000000000000000000000000000602082015250565b7f3c2f746578743e3c2f7376673e00000000000000000000000000000000000000600082015250565b7f4552433732313a20617070726f76652063616c6c6572206973206e6f74206f7760008201527f6e6572206e6f7220617070726f76656420666f7220616c6c0000000000000000602082015250565b7f4552433732313a2062616c616e636520717565727920666f7220746865207a6560008201527f726f206164647265737300000000000000000000000000000000000000000000602082015250565b7f4552433732313a206f776e657220717565727920666f72206e6f6e657869737460008201527f656e7420746f6b656e0000000000000000000000000000000000000000000000602082015250565b7f45524337323155524953746f726167653a2055524920736574206f66206e6f6e60008201527f6578697374656e7420746f6b656e000000000000000000000000000000000000602082015250565b7f227d000000000000000000000000000000000000000000000000000000000000600082015250565b7f4552433732313a206d696e7420746f20746865207a65726f2061646472657373600082015250565b7f45524337323155524953746f726167653a2055524920717565727920666f722060008201527f6e6f6e6578697374656e7420746f6b656e000000000000000000000000000000602082015250565b7f4552433732313a20617070726f76656420717565727920666f72206e6f6e657860008201527f697374656e7420746f6b656e0000000000000000000000000000000000000000602082015250565b7f4552433732314d657461646174613a2055524920717565727920666f72206e6f60008201527f6e6578697374656e7420746f6b656e0000000000000000000000000000000000602082015250565b7f7b226e616d65223a202200000000000000000000000000000000000000000000600082015250565b7f4552433732313a20617070726f76616c20746f2063757272656e74206f776e6560008201527f7200000000000000000000000000000000000000000000000000000000000000602082015250565b7f46495253545f574f524400000000000000000000000000000000000000000000600082015250565b7f646174613a6170706c69636174696f6e2f6a736f6e3b6261736536342c000000600082015250565b7f4552433732313a207472616e736665722063616c6c6572206973206e6f74206f60008201527f776e6572206e6f7220617070726f766564000000000000000000000000000000602082015250565b613999816130a9565b81146139a457600080fd5b50565b6139b0816130bb565b81146139bb57600080fd5b50565b6139c7816130c7565b81146139d257600080fd5b50565b6139de81613113565b81146139e957600080fd5b5056fe2d2d2d2d2d2d2d2d2d2d2d2d2d2d2d2d2d2d2d2d2d2d2d2d2d2d2d2d2d2d2d2d2d2d2d0a416e204e465420772f20494420257320686173206265656e206d696e74656420746f2025734142434445464748494a4b4c4d4e4f505152535455565758595a6162636465666768696a6b6c6d6e6f707172737475767778797a303132333435363738392b2fa26469706673582212201cab9fd12ec89ec2d88e1b9471c2efeab35039f300e63750ab23f9f73864572364736f6c634300080400333c73766720786d6c6e733d22687474703a2f2f7777772e77332e6f72672f323030302f73766722207072657365727665417370656374526174696f3d22784d696e594d696e206d656574222076696577426f783d223020302033353020333530223e203c7374796c653e2e62617365207b2066696c6c3a2077686974653b20666f6e742d66616d696c793a2073616e732d73657269663b20666f6e742d73697a653a20313870783b20666f6e742d7765696768743a20626f6c643b207d3c2f7374796c653e203c726563742077696474683d223130302522206865696768743d2231303025222066696c6c3d22626c61636b22202f3e203c7465787420783d223530252220793d223530252220636c6173733d22626173652220646f6d696e616e742d626173656c696e653d226d6964646c652220746578742d616e63686f723d226d6964646c65223e20",
  "linkReferences": {},
  "deployedLinkReferences": {}
}